:100000000C948D040C94B5040C94B5040C94910CD0
:100010000C946C0C0C94B5040C94B5040C94B504BD
:100020000C94B5040C94360C0C9441090C94AA0958
:100030000C94B5040C94B5040C94B5040C94B5045C
:100040000C94B5040C94B5040C94B5040C94B5044C
:100050000C94B5040C94B5040C94B5040C94EC0BFE
:100060000C94160D0C94ED0C0C94B5040C94B50482
:100070000C94B5040C94550D0C94B5040C94B50473
:100080000C94B60C0C94B5040C94B5040C94B50403
:100090000C94B5040C94B5040C94B5040C94B504FC
:1000A0000C94B5040C94B5040C94B504080B000230
:1000B0000202000009040000010202000005240001
:1000C0001001052401010104240206052406000193
:1000D0000705810310004009040100020A00000026
:1000E00007050202400000070583024000000403E8
:1000F000090412010002EF020140401C3705000113
:100100000102030154696C6C204861726261756D73
:100110000066744475696E6F00000006000C0013E1
:10012000001900200026002D0034003A004100484C
:10013000004E0055005C0063006A00700077007E8E
:100140000085008C0093009A00A100A800AF00B7C2
:1001500000BE00C500CC00D400DB00E200EA00F1E4
:1001600000F800000107010F0117011E0126012EF2
:100170000135013D0145014D0154015C0164016CF3
:100180000174017C0184018C0194019D01A501ADE4
:1001900001B501BE01C601CF01D701DF01E801F1C0
:1001A00001F90102020A0213021C0225022E023684
:1001B000023F02480251025A0264026D0276027F37
:1001C00002880292029B02A502AE02B802C102CBD3
:1001D00002D402DE02E802F202FB0205030F031959
:1001E0000323032E03380342034C03560361036BBE
:1001F00003760380038B039503A003AB03B603C10F
:1002000003CB03D603E103ED03F80303040E041A42
:1002100004250430043C04480453045F046B047652
:100220000482048E049A04A604B304BF04CB04D849
:1002300004E404F104FD040A051705230530053D17
:10024000054A055705640572057F058C059A05A8C2
:1002500005B505C305D105DF05ED05FB0509061745
:1002600006250634064206510660066E067D068C9B
:10027000069B06AA06BA06C906D806E806F70607C8
:1002800007170727073707470757076707780788BC
:10029000079907AA07BB07CC07DD07EE07FF071181
:1002A0000822083408460858086A087C088E08A105
:1002B00008B308C608D908EB08FE08120925093852
:1002C000094C096009740988099C09B009C509D954
:1002D00009EE09030A180A2D0A420A580A6E0A840E
:1002E0000A9A0AB00AC60ADD0AF30A0A0B210B3879
:1002F0000B500B670B7F0B970BAF0BC80BE00BF989
:100300000B120C2B0C440C5E0C770C910CAB0CC636
:100310000CE00CFB0C160D320D4D0D690D850DA179
:100320000DBD0DDA0DF70D140E310E4F0E6D0E8B47
:100330000EAA0EC80EE70E070F260F460F660F8790
:100340000FA70FC90FEA0F0C102D10501072109547
:1003500010B910DC100011241149116E119311B95C
:1003600011DF1106122D1254127C12A412CC12F5B8
:10037000121E13481372139D13C813F3131F144C4A
:10038000147914A614D4140215311561159115C1F0
:1003900015F215241656168916BC16F01624175990
:1003A000178F17C517FC1734186C18A518DF181A03
:1003B0001955199119CD190B1A491A881AC71A0813
:1003C0001B491B8C1BCF1B131C581C9E1CE41C2C94
:1003D0001D751DBF1D091E551EA21EF01E3F1F8F3D
:1003E0001FE11F33208720DC2032218A21E3213DB9
:1003F000229922F6225423B42316247924DD24449E
:1004000025AC2515268126EE265D27CE274128B668
:10041000282D29A629212A9E2A1E2BA02B252CAC6B
:100420002C352DC12D502EE12E762F0D30A73045C5
:1004300031E53189323133DC338A343C35F235AC45
:10044000366B372D38F438BF39903A653B3F3C1E48
:100450003D033EED3EDD3FD440D041D342DD43EE8F
:1004600044074627474F487F49B84AFA4B454D9ABB
:100470004EFA4F6451DA525B54E95584572C59E3D4
:100480005AA95C7F5E65605D6268648666B96802D1
:100490006B626DDB6F6E721D75E977D67AE47D163F
:1004A000817084F287A28B818F9493DF97679C3150
:1004B000A142A6A1AB56B168B7E1BDCBC432CC24F2
:1004C000D4B2DCECE5EAEFC3FAFFFFFFFFFFFFFF6A
:1004D000FFFFFFFFFFFFFFFFFFFFFFFFFFFFFFFF2C
:1004E000FFFFFFFFFFFFFFFFFFFFFFFFFFFFFFFF1C
:1004F000FFFFFFFFFFFFFFFFFFFFFFFFFFFFFFFF0C
:10050000FFFFFFFFFFFFFFFFFFFFFFFFFFFFFFFFFB
:10091000FFFFFFFFFFFFFF00AD0D11241FBECFEF54
:10092000DAE0DEBFCDBF11E0A0E0B1E0E0E5FFE13D
:1009300002C005900D92A033B107D9F722E0A0E3E1
:10094000B1E001C01D92A535B207E1F714E0CDE892
:10095000D4E004C02197FE010E94A00FCC38D1073B
:10096000C9F70E94D30D0C94A60F0C940000CF92EF
:10097000DF92EF92FF920F931F93282F237030E0A6
:10098000F901E75EFE4F00812B5E3E4FF901908139
:10099000613091F5C02ED12CF12CE12C092F10E003
:1009A00030E020E082FD08C0FE2CED2CDC2CCC24B5
:1009B000322F212F102F0027E4EBF1E050E0B60199
:1009C000602B712B60957095009510958191919198
:1009D000DF0112975417F8F48C299D298023912365
:1009E0008D939C935F5F503489F71F910F91FF9017
:1009F000EF90DF90CF900895623029F4C92ED12C6A
:100A0000F12CE12CCCCF092B10E030E020E0C12C00
:100A1000D12C7601C7CF86239723E2CFCF93DF93E4
:100A2000D42FC82FCC0F6130A9F038F06230C9F054
:100A30006330F1F0DF91CF91089540E060E08C2FBA
:100A40000E94B70440E060E081E08C0FDF91CF911D
:100A50000C94B70462E08C2F0E94B7044D2F61E024
:100A6000F3CF61E08C2F0E94B7044D2F62E0ECCFF2
:100A700062E0F8CF21E030E0A90102C0440F551F29
:100A80008A95E2F7CA012091B1013091B001422F5D
:100A9000482319F4432F482361F4382B3093B001D5
:100AA000809528232093B1019091B20189238093EE
:100AB000B201089583FF02C0469A0895469880FFC8
:100AC00008C0889A81FF07C0899A82FF06C05D9A94
:100AD00008958898F7CF8998F8CF5D980895809108
:100AE0009F0190E0959587952091B00130E0082E08
:100AF00002C0359527950A94E2F720FF16C00E94A0
:100B00005A0520919F01822F90E0959587958370DB
:100B100023FD0DC0846480937C0010927B00809143
:100B20007A00806480937A0008958FEFE8CF806424
:100B300080937C0080E280937B00F1CF811107C01D
:100B400099B1947081E0911101C080E008958130E5
:100B500019F499B19870F6CF93B1823011F4907274
:100B6000F1CF9074EFCF90914E01911103C08FEFB0
:100B70009FEF08954FB7F89492E09093E900909119
:100B8000F200292F30E01216130614F421E030E0B1
:100B9000232B29F084E680934D018091F100992365
:100BA00039F02091F200211103C02BE62093E800D8
:100BB0004FBF9923E1F290E008952FB7F89483E0B6
:100BC0008093E9009091E800892F807295FF04C01E
:100BD0009091F20080E4891B2FBF08958091450118
:100BE00081110DC082E08093410184E08093420135
:100BF000109244011092430181E08093450181E409
:100C000091E00895CF93DF931F92CDB7DEB769834C
:100C1000DC01ED91FC910280F381E02D41E050E098
:100C2000BE016F5F7F4F09950F90DF91CF910895BF
:100C300083E08093E9008091F200882319F08AE331
:100C40008093E80008950E94DD0590E00895FC017E
:100C50008485958597FD05C02FEF3FEF3587248765
:100C600008950C94B305CF93DF93EC018C859D859B
:100C700097FF04C00E94B3059D878C878C859D8556
:100C8000DF91CF910895FC018485958597FD0BC078
:100C90009FB7F89482E08093E9008091F2009FBFB3
:100CA00090E0019608959FB7F89482E08093E90060
:100CB0008091F2009FBF90E0089540913B015091D8
:100CC0003C012091390130913A0142175307B4F4A5
:100CD0009091E8009570E1F39091E80092FD19C0C1
:100CE0008093F10080913B0190913C0101968F73BC
:100CF0009927892B19F48EEF8093E80080913B01AE
:100D000090913C01019690933C0180933B0181E0DE
:100D1000089580E00895EF92FF920F931F93CF9371
:100D2000DF93F82E192FE62E042F81E0860F880F0F
:100D30000E945D0683E00E945D06CF2DD12FEC0E50
:100D4000FD2EF11CCE15DF05B9F007FF13C0FE0123
:100D500084910E945D06182F80E00E945D06812329
:100D600021968111EFCFDF91CF911F910F91FF90CD
:100D7000EF9008958881EDCF81E0F5CFDF92EF927B
:100D8000FF920F931F93CF93DF93D82E8A01EB012D
:100D90007B01E40EF51ECE15DF0559F0D7FE12C01B
:100DA000FE0184910E945D0621968111F4CF0FEF20
:100DB0001FEFC801DF91CF911F910F91FF90EF902E
:100DC000DF9008958881EECF0F931F93CF93DF9329
:100DD0001F92CDB7DEB782E0898342E450E06CEA2F
:100DE00070E080E80E94BE060E94EE05DC011296CB
:100DF0000D911C910115110589F0D801ED91FC911F
:100E00000280F381E02DBE016F5F7F4FC80109951D
:100E100097FD04C0F80100851185ECCF89810F9002
:100E2000DF91CF911F910F9108953FB7F894809172
:100E3000350190913601A0913701B091380126B566
:100E4000A89B05C02F3F19F00196A11DB11D3FBF02
:100E5000BA2FA92F982F8827BC01CD01620F711DD1
:100E6000811D911D42E0660F771F881F991F4A95CB
:100E7000D1F708958F929F92AF92BF92CF92DF9257
:100E8000EF92FF920F931F93CF93C82F80914B0245
:100E90000C2F10E090E00C2E02C0959587950A94D7
:100EA000E2F780FF3BC08C2F0E949E058823B1F1A2
:100EB00080914A0290E00C2E02C0959587950A9485
:100EC000E2F780FD2BC0F801EE0FFF1FE45BFD4F42
:100ED00080819181019611F520914B0280E190E093
:100EE0000C2E02C0880F991F0A94E2F730E082238B
:100EF000932360E0892B09F063E040E48C2F0E948B
:100F00000E0520914B0281E090E00C2E01C0880F6D
:100F10000A94EAF78095822380934B027801EE0CC5
:100F2000FF1CEE0CFF1CC701865C9D4F6C01FC0191
:100F300080819181A281B381892B8A2B8B2B09F42B
:100F40005CC00E941507F60180809180A280B3806A
:100F5000681979098A099B09693E734081059105E1
:100F600008F44BC08C2F0E949E0590914A02292FB5
:100F700030E00C2E02C0359527950A94E2F720FF49
:100F800029C081113AC021E030E001C0220FCA958A
:100F9000EAF72095292320934A022091540230E059
:100FA000A801440F551F02C0359527954A95E2F7D1
:100FB0002370233021F0811117C02230B9F4000FC3
:100FC000111FF801E45BFD4F8081918101969183AF
:100FD00080830CC0882389F021E030E001C0220F1B
:100FE000CA95EAF7292BD7CF213049F3F701E65C00
:100FF000FD4F1082118212821382CF911F910F91A7
:10100000FF90EF90DF90CF90BF90AF909F908F9028
:101010000895CF93C82F0E943A070E94150724E035
:10102000C29FF0011124E65CFD4F608371838283CF
:101030009383CF9108958F929F92AF92BF92CF9258
:10104000DF92EF92FF924B015C010E9415076B014A
:101050007C010E9415076C197D098E099F09683E65
:10106000734081059105A8F321E0821A9108A10837
:10107000B10888EEC80E83E0D81EE11CF11C811473
:101080009104A104B10429F7FF90EF90DF90CF9075
:10109000BF90AF909F908F9008958F929F92AF9244
:1010A000BF92CF92DF92EF92FF920F931F93CF9355
:1010B000DF936C017B018A0180910D01882309F483
:1010C0005BC080914E01882309F456C08091400195
:1010D00080FF05C08091E00082608093E000E8011D
:1010E000B12C8AEFA82E93E0892E2AE3922E209726
:1010F00011F4BB20D9F10E94DD0581110AC0AA9428
:10110000AA20D1F161E070E080E090E00E941B082D
:10111000EECF8C171D0611F00CF08C2F9FB7F894B2
:101120008092E9002091E80025FD02C09FBFDFCF3B
:10113000282F30E0C21BD30BF701815020F04191E2
:101140004093F100FACFE20EF31EBB2021F0909203
:10115000E800B12CEBCF8091E80085FDE7CF9092BD
:10116000E800BB24B394209709F3F3CF84E680937F
:101170003F01101611063CF081E090E0F6019383E8
:10118000828310E000E0C801DF91CF911F910F91A1
:10119000FF90EF90DF90CF90BF90AF909F908F9097
:1011A0000895E82FF0E021E030E002C0220F331F65
:1011B0008A95E2F78091B20190E082239323892BF4
:1011C00039F48FE891E00197F1F700C00000F2CF09
:1011D000EE0FFF1FE156FE4F0180F281E02DEE0F72
:1011E000FF1FE75EFE4F859194910895E82FF0E090
:1011F0002091B00130E0082E02C0359527950A9461
:10120000E2F720FD15C021E030E002C0220F331FBD
:101210008A95E2F78091B20190E082239323892B93
:10122000F1F48FE891E00197F1F700C00000F2CFF0
:101230002091B10130E0082E02C0359527950A941F
:10124000E2F720FD0C94D1080E94D10831E020E0A3
:10125000843F914008F030E0832F922F0895EE0FE5
:10126000FF1FE156FE4F21813281A0E1B7E20E94CB
:101270006F0F2FEF33E040E050E00E94500FC901A4
:1012800008951F920F920FB60F9211248F939F9380
:101290008091E1009091E100937F9093E10083FFC2
:1012A0000FC01092E90091E09093EB001092EC00D7
:1012B00092E39093ED0010924E0198E09093F0002D
:1012C00082FF1CC093E09093E9009091F200992373
:1012D00019F09AE39093E80090913F01992329F047
:1012E00090913F01915090933F0190914D0199232E
:1012F00029F090914D01915090934D0184FF18C0B9
:101300008091E2008E7E81608093E2008091E10016
:101310008F7E8093E100809140018E7E806180937A
:1013200040019F918F910F900FBE0F901F901895C5
:1013300080FFF7CF8091E2008E7E80618093E20093
:101340008091E1008E7E8093E100809140018E7E4D
:101350008160E5CF1F920F920FB60F921124CF92AA
:10136000DF92EF92FF920F931F932F933F934F9330
:101370005F936F937F938F939F93AF93BF93EF93FD
:10138000FF93CF93DF93CDB7DEB76C97DEBFCDBFB2
:101390001092E9008091E80083FF2FC089E0FE01F0
:1013A0007596EE2EDF2E815029F09091F1009083FA
:1013B0003196F9CF84E680934D0182EF8093E80067
:1013C0008D8987FF39C09091E80090FFFCCF982F5E
:1013D000907609F033C19E894F89588D2F89F88CFA
:1013E000911131C0803861F580913E018093F10008
:1013F0001092F1008EEF8093E8006C960FB6F8948F
:10140000DEBF0FBECDBFDF91CF91FF91EF91BF91B6
:10141000AF919F918F917F916F915F914F913F918C
:101420002F911F910F91FF90EF90DF90CF900F9031
:101430000FBE0F901F9018959EEF9093E800C7CFB6
:101440001092F100D5CF913059F48111D3CF4130B2
:10145000510581F680913E018D7F80933E01CACF78
:10146000933049F48111C6CF4130510519F680916E
:101470003E018260F2CF953041F48091E80080FF18
:10148000FCCF20682093E300B5CF963009F0A8C0C8
:101490000B8D1C8D22E01092E90010923C011092FD
:1014A0003B01F2122EC010923A01109239010E94B3
:1014B000E4061F8299E09983FA8291E09E8390EA84
:1014C00098879AEF998720913B0130913C01275FE3
:1014D0003F4F3C832B838D831092E90010923C0197
:1014E00010923B0110933A010093390149E050E01A
:1014F000BE016F5F7F4F80E00E94BE060E94E4063F
:1015000079CF10933A01009339010E94EE05DC0176
:1015100012960D911C910115110509F457C1D801BE
:10152000ED91FC910480F581E02D6E2D7D2DC8019B
:101530000995009709F045C1F80100851185EBCFA9
:10154000F3E0FF120EC08F89882309F440C0823077
:1015500061F440E867E081E191E00E948B0681112F
:1015600049CF81E28093EB0048CF813029F440E8F5
:101570006CE084E091E0F1CF833099F70E94EE05B2
:10158000DC011296ED90FC908E010F5F1F4F6801F9
:10159000E114F10479F0D701ED91FC910680F78117
:1015A000E02DB801C7010995080F111DF701E0846E
:1015B000F184EECFD8011C92F60101900020E9F7EA
:1015C0003197BF016C197D0940E0C601C6CF6EEEB0
:1015D00070E0FB01449150E080E80E94BE060ACF13
:1015E000973009F4BECF983021F481E08093F10068
:1015F00001CF993009F0FECE837009F0B2CFEFE051
:10160000F1E081E031E096E32191222371F08093B3
:10161000E9003093EB00DF0111972C912093EC004F
:101620009093ED008F5F873079F78EE78093EA0023
:101630001092EA008F8980934E01DCCE8B8D9C8DB9
:101640001092E90010923C0110923B0190933A01F4
:1016500080933901898D81119AC08E899D89913A33
:1016600049F4813209F07DCF47E050E066E071E057
:1016700080E0B3CF913209F074CF833269F48F895F
:10168000988DB0E0A0E08093020190930301A093B5
:101690000401B0930501AECE8032A9F48091E80038
:1016A00082FFFCCF88E0E6E0F1E0815029F09091E4
:1016B000F10090833196F9CF84E680934D018BEF52
:1016C0008093E80097CE823209F094CE8F89809380
:1016D0000D01EEEFFFE7859194918B3F9C4D51F109
:1016E000E0E0F8E08091060190910701A0910801E7
:1016F000B0910901803B9440A105B105F1F48091BE
:101700000D0180FD1AC0EE3F8AE0F80789F587E7F2
:1017100097E7918380838091600080933D0188E109
:101720009BE00FB6F894A895809360000FBE90934D
:10173000600060CEEEEFFAE0D5CF808191818737EF
:10174000974709F057CEA8958091600088618093F3
:10175000600080913D0180936000EE3F2AE0F20737
:1017600089F08091FE0A9091FF0A9183808342CE96
:10177000808191818737980751F29093FF0A809377
:10178000FE0AC5CF1092FF0A1092FE0A33CE0E94C5
:10179000EE05DC0112960D911C910115110509F45D
:1017A000E0CED801ED91FC910190F081E02D6E2DFD
:1017B0007D2DC801099581111DCEF8010085118587
:1017C000ECCF181619060CF415CECBCEF1E0FF12B3
:1017D000B7CE62EF70E0FDCE1F920F920FB60F9260
:1017E00011242F933F938F939F93AF93BF93809137
:1017F000310190913201A0913301B09134013091C7
:10180000300123E0230F2D3758F50196A11DB11D9E
:10181000209330018093310190933201A0933301E2
:10182000B09334018091350190913601A091370138
:10183000B09138010196A11DB11D8093350190939F
:101840003601A0933701B0933801BF91AF919F91BA
:101850008F913F912F910F900FBE0F901F90189571
:1018600026E8230F0296A11DB11DD2CF1F920F9221
:101870000FB60F9211242F933F934F935F936F9363
:101880007F938F939F93AF93BF93CF93DF93EF9308
:10189000FF93D3B1C0910001CD27C5FF03C082E003
:1018A0000E940908C6FF03C083E00E940908D09384
:1018B0000001FF91EF91DF91CF91BF91AF919F9187
:1018C0008F917F916F915F914F913F912F910F90E9
:1018D0000FBE0F901F9018951F920F920FB60F9288
:1018E00011242F933F934F935F936F937F938F9325
:1018F0009F93AF93BF93EF93FF9381E00E940908FA
:10190000FF91EF91BF91AF919F918F917F916F91D7
:101910005F914F913F912F910F900FBE0F901F90AD
:1019200018951F920F920FB60F9211242F933F9389
:101930004F935F936F937F938F939F93AF93BF93D7
:10194000EF93FF9380E00E940908FF91EF91BF9110
:10195000AF919F918F917F916F915F914F913F9147
:101960002F910F900FBE0F901F9018951F920F92FE
:101970000FB60F9211248F939F9380913702882383
:1019800011F18091360291E0980F909336028430E5
:1019900029F48FEF80933902809338021092370236
:1019A0008091C9008F7E8093C900729A8FE094EF76
:1019B00090939500809394009F918F910F900FBE0C
:1019C0000F901F90189581E0809337027298809154
:1019D000C90080618093C900EFCF1F920F920FB6AC
:1019E0000F9211248F939F938091CE009091370294
:1019F000913089F4982F987F903819F487708093EC
:101A0000380282E0809337029F918F910F900FBE32
:101A10000F901F9018959230B9F787FF8093390285
:101A200083E08093370210923602EECF1F920F921E
:101A30000FB60F9211242F933F934F935F938F9381
:101A40009F93EF93FF938091B301982F937081F44C
:101A5000289A2898E82FE695E695F0E0EE0FFF1F0C
:101A6000E156FE4F45895689509335024093340222
:101A700080FF19C081FB222720F930E02C5C3D4F0C
:101A8000F90190819EBD8F5F8093B301FF91EF912B
:101A90009F918F915F914F913F912F910F900FBE2A
:101AA0000F901F9018951EBCEECF1F920F920FB68D
:101AB0000F9211242F933F934F935F936F937F93D4
:101AC0008F939F93AF93BF93EF93FF9380919F0169
:101AD00080FF1AC0282F30E0359527954091780077
:101AE00050917900F901EE0FFF1FE156FE4F52832E
:101AF000418341E050E001C0440F2A95EAF79091FC
:101B0000B201942B9093B2018F5F982F9F709093A6
:101B10009F01837029F4892F869586950E943A0744
:101B200080919F0180FD13C00E946F05FF91EF918E
:101B3000BF91AF919F918F917F916F915F914F91E5
:101B40003F912F910F900FBE0F901F90189580918D
:101B50007A00806480937A00E9CFEFE4F1E01382A9
:101B6000128288EE93E0A0E0B0E084839583A683A0
:101B7000B78381E291E0918380838FEF9FEF958718
:101B80008487EFE9F1E0818B128A138A148A8093AB
:101B9000380280933902EAE3F2E080E1DF011D922E
:101BA0008A95E9F70895789484B5826084BD84B5F8
:101BB000816084BD85B5826085BD85B5816085BD48
:101BC00080916E00816080936E0010928100809100
:101BD0008100826080938100809181008160809388
:101BE00081008091800081608093800080919100CD
:101BF0008260809391008091910081608093910038
:101C0000809190008160809390008091C1008460F9
:101C10008093C1008091C10082608093C100809157
:101C2000C10081608093C1008091C3008160809376
:101C3000C3008091C00082608093C0008091C20088
:101C400081608093C20080917A00846080937A00E2
:101C500080917A00826080937A0080917A0081601E
:101C600080937A0080917A00806880937A00109245
:101C70004E0110923E01109240018091D700816088
:101C80008093D70080EA8093D80089B5806189BDB0
:101C900089B5826089BD09B400FEFDCF61E070E0C6
:101CA00080E090E00E941B088091D8008F7C8061CA
:101CB0008093D8008091E000807F8093E000809145
:101CC000E1008E7E8093E1008DE08093E2003E9AF9
:101CD000469A809A8898819A8998559A5D9880EF5B
:101CE00080937E008FE080937D0084E480937C006D
:101CF0008FE880937A0010927B0010929F011092DF
:101D0000B2010E946F056A9A729880E190E0909308
:101D1000CD008093CC0082E08093C80080E880935F
:101D2000C90086E08093CA0084B1876084B9289A8C
:101D300086ED8CBD8DB58E7F8DBD6E9A769A279A75
:101D40002F98E4EBF1E01192119282E0E433F8076E
:101D5000D1F71092B3011EBC8AB1837F8AB98BB1CF
:101D6000837F8BB984B18F7984B985B18F7985B937
:101D700080EF80934B021092540280E580936900BB
:101D80008CE08DBB81E08093680080E680936B00DF
:101D900088E18093810083E0809380001092850029
:101DA0001092840085E09FEF9093890080938800D3
:101DB0008FEF9FEF90938B0080938A0084E086BB27
:101DC00080936F00809181008360809381008FEF0A
:101DD00080934A0210924D0210924C0210924F02D0
:101DE00010924E0210925102109250021092530221
:101DF0001092520281E00E943A0580E00E943A056A
:101E000082E00E943A05609101016F5F44E183E046
:101E10000E940E0564E670E080E090E00E941B08DE
:101E200081E00E94F608892BD9F744E160E083E065
:101E30000E940E058091010191E0892780930101A4
:101E4000C0E0D0E080E00E94F608892B21F5609187
:101E500001016F5F44E183E00E940E0581E00E9472
:101E6000F608892B21F0809101018111F7CF82E0E2
:101E70000E94F608892B21F080910101882371F3DB
:101E800044E160E083E00E940E058091010191E051
:101E90008927809301012097A9F20E940000D2CFE8
:101EA000052E97FB1EF400940E94670F57FD07D084
:101EB0000E947E0F07FC03D04EF40C94670F5095E0
:101EC0004095309521953F4F4F4F5F4F0895909526
:101ED0008095709561957F4F8F4F9F4F0895A29F7A
:101EE000B001B39FC001A39F700D811D1124911DEE
:101EF000B29F700D811D1124911D0895A1E21A2E2B
:101F0000AA1BBB1BFD010DC0AA1FBB1FEE1FFF1F9D
:101F1000A217B307E407F50720F0A21BB30BE40BED
:101F2000F50B661F771F881F991F1A9469F7609534
:101F30007095809590959B01AC01BD01CF010895EE
:101F4000EE0FFF1F0590F491E02D0994F894FFCF58
:101F5000FF01FFFFFFFF00E100000000000000C1E3
:101F60008081000000800140040220081000000071
:101F70000002064D0823061806430627063306000E
:00000001FF
