:100000000C948E000C94B6000C94B6000C94B600C0
:100010000C94B6000C94B6000C94B6000C94B60088
:100020000C94B6000C94B6000C94D7020C944003C8
:100030000C94B6000C94B6000C94B6000C94B60068
:100040000C94B6000C94B6000C94B6000C94B60058
:100050000C94B6000C94B6000C94B6000C94820577
:100060000C94B6000C94B6000C94B6000C94B60038
:100070000C94B6000C94B6000C94B6000C94B60028
:100080000C94B6000C94B6000C94B6000C94B60018
:100090000C94B6000C94B6000C94B6000C94B60008
:1000A0000C94B6000C94B6000C94B600080B000239
:1000B0000202000009040000010202000005240001
:1000C0001001052401010104240206052406000193
:1000D0000705810310004009040100020A00000026
:1000E00007050202400000070583024000000403E8
:1000F000090412010002EF020140401C3705000113
:100100000102030154696C6C204861726261756D73
:100110000066744475696E6F0000CC0511241FBE23
:10012000CFEFDAE0DEBFCDBF11E0A0E0B1E0E0E06C
:10013000FDE002C005900D92A632B107D9F721E08B
:10014000A6E2B1E001C01D92A539B207E1F710E0C7
:10015000CEE8D0E004C02197FE010E947806CD3899
:10016000D107C9F70E94E1050C947E060C940000AB
:1001700090919401911103C08FEF9FEF08954FB7B5
:10018000F89492E09093E9009091F200292F30E0EA
:100190001216130614F421E030E0232B29F084E634
:1001A000809393018091F100992339F02091F2001E
:1001B000211103C02BE62093E8004FBF9923E1F201
:1001C00090E008952FB7F89483E08093E900909130
:1001D000E800892F807295FF04C09091F20080E4BE
:1001E000891B2FBF089580918B0181110DC082E082
:1001F0008093870184E08093880110928A01109295
:10020000890181E080938B0187E891E00895CF9385
:10021000DF931F92CDB7DEB76983DC01ED91FC91CE
:100220000280F381E02D41E050E0BE016F5F7F4F1F
:1002300009950F90DF91CF91089583E08093E900B5
:100240008091F200882319F08AE38093E8000895F2
:100250000E94E20090E00895FC018485958597FD59
:1002600005C02FEF3FEF3587248708950C94B80021
:10027000CF93DF93EC018C859D8597FF04C00E948E
:10028000B8009D878C878C859D85DF91CF910895DF
:10029000FC018485958597FD0BC09FB7F89482E09B
:1002A0008093E9008091F2009FBF90E0019608954D
:1002B0009FB7F89482E08093E9008091F2009FBF9D
:1002C00090E00895409131015091320120912F0129
:1002D0003091300142175307B4F49091E8009570C3
:1002E000E1F39091E80092FD19C08093F1008091B4
:1002F00031019091320101968F739927892B19F45E
:100300008EEF8093E8008091310190913201019647
:10031000909332018093310181E0089580E0089547
:10032000EF92FF920F931F93CF93DF93F82E192F25
:10033000E62E042F81E0860F880F0E94620183E081
:100340000E946201CF2DD12FEC0EFD2EF11CCE1597
:10035000DF05B9F007FF13C0FE0184910E9462011E
:10036000182F80E00E946201812321968111EFCF36
:10037000DF91CF911F910F91FF90EF9008958881A9
:10038000EDCF81E0F5CFDF92EF92FF920F931F93B5
:10039000CF93DF93D82E8A01EB017B01E40EF51E8B
:1003A000CE15DF0559F0D7FE12C0FE0184910E94E0
:1003B000620121968111F4CF0FEF1FEFC801DF9189
:1003C000CF911F910F91FF90EF90DF90089588815A
:1003D000EECF0F931F93CF93DF931F92CDB7DEB76E
:1003E00082E0898342E450E06CEA70E080E80E9499
:1003F000C3010E94F300DC0112960D911C910115BE
:10040000110589F0D801ED91FC910280F381E02D76
:10041000BE016F5F7F4FC801099597FD04C0F801C9
:1004200000851185ECCF89810F90DF91CF911F91CD
:100430000F9108953FB7F89480912B0190912C0172
:10044000A0912D01B0912E0126B5A89B05C02F3F8C
:1004500019F00196A11DB11D3FBFBA2FA92F982FEA
:100460008827BC01CD01620F711D811D911D42E0E5
:10047000660F771F881F991F4A95D1F70895CF926D
:10048000DF92EF92FF920E941A026B017C010E94A0
:100490001A026C197D098E099F09683E7340810517
:1004A0009105A8F3FF90EF90DF90CF9008958F9281
:1004B0009F92AF92BF92CF92DF92EF92FF920F93F3
:1004C0001F93CF93DF936C017B018A0180910B0115
:1004D000882309F457C080919401882309F452C0FD
:1004E0008091360180FF05C08091E000826080939A
:1004F000E000E801B12C8AEFA82E93E0892E2AE3D0
:10050000922E209711F4BB20B9F10E94E2008111D4
:1005100006C0AA94AA20B1F10E943F02F2CF8C1724
:100520001D0611F00CF08C2F9FB7F8948092E90013
:100530002091E80025FD02C09FBFE3CF282F30E0C7
:10054000C21BD30BF701815020F041914093F10081
:10055000FACFE20EF31EBB2021F09092E800B12CFE
:10056000EBCF8091E80085FDE7CF9092E800BB24B7
:10057000B394209709F3F3CF84E6809335011016E6
:1005800011063CF081E090E0F6019383828310E055
:1005900000E0C801DF91CF911F910F91FF90EF9084
:1005A000DF90CF90BF90AF909F908F9008951F9253
:1005B0000F920FB60F9211248F939F938091E100B9
:1005C0009091E100937F9093E10083FF0FC0109220
:1005D000E90091E09093EB001092EC0092E390938D
:1005E000ED001092940198E09093F00082FF1CC0FF
:1005F00093E09093E9009091F200992319F09AE327
:100600009093E80090913501992329F0909135015C
:1006100091509093350190919301992329F09091F5
:10062000930191509093930184FF18C08091E20050
:100630008E7E81608093E2008091E1008F7E8093C6
:10064000E100809136018E7E8061809336019F911A
:100650008F910F900FBE0F901F90189580FFF7CFCE
:100660008091E2008E7E80618093E2008091E100C3
:100670008E7E8093E100809136018E7E8160E5CF91
:100680001F920F920FB60F921124CF92DF92EF922A
:10069000FF920F931F932F933F934F935F936F930B
:1006A0007F938F939F93AF93BF93EF93FF93CF93DA
:1006B000DF93CDB7DEB76C97DEBFCDBF1092E900F8
:1006C0008091E80083FF2FC089E0FE017596EE2E31
:1006D000DF2E815029F09091F10090833196F9CF6F
:1006E00084E68093930182EF8093E8008D8987FFF1
:1006F00039C09091E80090FFFCCF982F907609F0D8
:1007000033C19E894F89588D2F89F88C911131C042
:10071000803861F5809134018093F1001092F100EE
:100720008EEF8093E8006C960FB6F894DEBF0FBE94
:10073000CDBFDF91CF91FF91EF91BF91AF919F918D
:100740008F917F916F915F914F913F912F911F9169
:100750000F91FF90EF90DF90CF900F900FBE0F9012
:100760001F9018959EEF9093E800C7CF1092F1006C
:10077000D5CF913059F48111D3CF4130510581F655
:10078000809134018D7F80933401CACF933049F436
:100790008111C6CF4130510519F680913401826034
:1007A000F2CF953041F48091E80080FFFCCF2068C3
:1007B0002093E300B5CF963009F0A8C00B8D1C8DB7
:1007C00022E01092E9001092320110923101F212EF
:1007D0002EC01092300110922F010E94E9011F8259
:1007E00099E09983FA8291E09E8390EA98879AEF44
:1007F00099872091310130913201275F3F4F3C832F
:100800002B838D831092E9001092320110923101F6
:100810001093300100932F0149E050E0BE016F5F5B
:100820007F4F80E00E94C3010E94E90179CF1093BD
:10083000300100932F010E94F300DC0112960D910C
:100840001C910115110509F457C1D801ED91FC91D6
:100850000480F581E02D6E2D7D2DC801099500974E
:1008600009F045C1F80100851185EBCFF3E0FF12D7
:100870000EC08F89882309F440C0823061F440E8BB
:1008800067E081E191E00E949001811149CF81E20E
:100890008093EB0048CF813029F440E86CE084E09D
:1008A00091E0F1CF833099F70E94F300DC011296BA
:1008B000ED90FC908E010F5F1F4F6801E114F10471
:1008C00079F0D701ED91FC910680F781E02DB80118
:1008D000C7010995080F111DF701E084F184EECFDF
:1008E000D8011C92F60101900020E9F73197BF0171
:1008F0006C197D0940E0C601C6CF6EEE70E0FB01C9
:10090000449150E080E80E94C3010ACF973009F477
:10091000BECF983021F481E08093F10001CF99306F
:1009200009F0FECE837009F0B2CFEDE0F1E081E096
:1009300031E096E32191222371F08093E900309316
:10094000EB00DF0111972C912093EC009093ED00C8
:100950008F5F873079F78EE78093EA001092EA0084
:100960008F8980939401DCCE8B8D9C8D1092E90051
:1009700010923201109231019093300180932F0137
:10098000898D81119AC08E899D89913A49F481326D
:1009900009F07DCF47E050E064E071E080E0B3CF44
:1009A000913209F074CF833269F48F89988DB0E069
:1009B000A0E08093000190930101A0930201B09305
:1009C0000301AECE8032A9F48091E80082FFFCCF13
:1009D00088E0E4E0F1E0815029F09091F10090830B
:1009E0003196F9CF84E6809393018BEF8093E800F2
:1009F00097CE823209F094CE8F8980930B01EEEF6F
:100A0000FFE7859194918B3F9C4D51F1E0E0F8E038
:100A10008091040190910501A0910601B091070118
:100A2000803B9440A105B105F1F480910B0180FD5C
:100A30001AC0EE3F8AE0F80789F587E797E79183C8
:100A40008083809160008093330188E19BE00FB642
:100A5000F894A895809360000FBE9093600060CEDC
:100A6000EEEFFAE0D5CF808191818737974709F083
:100A700057CEA89580916000886180936000809136
:100A8000330180936000EE3F2AE0F20789F0809105
:100A9000FE0A9091FF0A9183808342CE80819181EA
:100AA0008737980751F29093FF0A8093FE0AC5CFCB
:100AB0001092FF0A1092FE0A33CE0E94F300DC016E
:100AC00012960D911C910115110509F4E0CED80183
:100AD000ED91FC910190F081E02D6E2D7D2DC801EE
:100AE000099581111DCEF80100851185ECCF1816EE
:100AF00019060CF415CECBCEF1E0FF12B7CE62EFA3
:100B000070E0FDCE1F920F920FB60F9211242F931B
:100B10003F938F939F93AF93BF93809127019091C1
:100B20002801A0912901B0912A013091260123E0EA
:100B3000230F2D3758F50196A11DB11D20932601D5
:100B40008093270190932801A0932901B0932A0153
:100B500080912B0190912C01A0912D01B0912E013B
:100B60000196A11DB11D80932B0190932C01A093A0
:100B70002D01B0932E01BF91AF919F918F913F9125
:100B80002F910F900FBE0F901F90189526E8230FFE
:100B90000296A11DB11DD2CFE7E3F1E013821282CC
:100BA00088EE93E0A0E0B0E084839583A683B783CA
:100BB00087E191E0918380838FEF9FEF9587848712
:100BC0000895789484B5826084BD84B5816084BDC5
:100BD00085B5826085BD85B5816085BD80916E00DB
:100BE000816080936E00109281008091810082600C
:100BF0008093810080918100816080938100809149
:100C00008000816080938000809191008260809359
:100C1000910080919100816080939100809190007B
:100C20008160809390008091C10084608093C100B6
:100C30008091C10082608093C1008091C100816079
:100C40008093C1008091C30081608093C300809134
:100C5000C00082608093C0008091C2008160809358
:100C6000C20080917A00846080937A0080917A003B
:100C7000826080937A0080917A00816080937A000C
:100C800080917A00806880937A001092940110928B
:100C90003401109236018091D70081608093D70093
:100CA00080EA8093D80089B5806189BD89B582606A
:100CB00089BD09B400FEFDCF0E943F028091D8009B
:100CC0008F7C80618093D8008091E000807F80934A
:100CD000E0008091E1008E7E8093E1008DE08093C2
:100CE000E200C0E0D0E02097F1F30E940000FBCFCB
:100CF000EE0FFF1F0590F491E02D0994F894FFCFBB
:100D0000FFFFFFFF00E100000000000000C1808144
:100D1000000000000000000701570228011D0148E3
:060D2000012C0138010066
:00000001FF
