:100000000C948D040C94B5040C94B5040C94BA0DA6
:100010000C94950D0C94B5040C94B5040C94B50493
:100020000C94B5040C945F0D0C94B40A0C941D0B45
:100030000C94B5040C94B5040C94B5040C94B5045C
:100040000C94B5040C94B5040C94B5040C94B5044C
:100050000C94B5040C94B5040C94B5040C946A0A81
:100060000C943F0E0C94160E0C94B5040C94B5042D
:100070000C94B5040C947E0E0C94B5040C94B50449
:100080000C94DF0D0C94B5040C94B5040C94B504D9
:100090000C94B5040C94B5040C94B5040C94B504FC
:1000A0000C94B5040C94B5040C94B504080B000230
:1000B0000202000009040000010202000005240001
:1000C0001001052401010104240206052406000193
:1000D0000705810310004009040100020A00000026
:1000E00007050202400000070583024000000403E8
:1000F000090412010002EF020140401C3705000113
:100100000102030154696C6C204861726261756D73
:100110000066744475696E6F00000006000C0013E1
:10012000001900200026002D0034003A004100484C
:10013000004E0055005C0063006A00700077007E8E
:100140000085008C0093009A00A100A800AF00B7C2
:1001500000BE00C500CC00D400DB00E200EA00F1E4
:1001600000F800000107010F0117011E0126012EF2
:100170000135013D0145014D0154015C0164016CF3
:100180000174017C0184018C0194019D01A501ADE4
:1001900001B501BE01C601CF01D701DF01E801F1C0
:1001A00001F90102020A0213021C0225022E023684
:1001B000023F02480251025A0264026D0276027F37
:1001C00002880292029B02A502AE02B802C102CBD3
:1001D00002D402DE02E802F202FB0205030F031959
:1001E0000323032E03380342034C03560361036BBE
:1001F00003760380038B039503A003AB03B603C10F
:1002000003CB03D603E103ED03F80303040E041A42
:1002100004250430043C04480453045F046B047652
:100220000482048E049A04A604B304BF04CB04D849
:1002300004E404F104FD040A051705230530053D17
:10024000054A055705640572057F058C059A05A8C2
:1002500005B505C305D105DF05ED05FB0509061745
:1002600006250634064206510660066E067D068C9B
:10027000069B06AA06BA06C906D806E806F70607C8
:1002800007170727073707470757076707780788BC
:10029000079907AA07BB07CC07DD07EE07FF071181
:1002A0000822083408460858086A087C088E08A105
:1002B00008B308C608D908EB08FE08120925093852
:1002C000094C096009740988099C09B009C509D954
:1002D00009EE09030A180A2D0A420A580A6E0A840E
:1002E0000A9A0AB00AC60ADD0AF30A0A0B210B3879
:1002F0000B500B670B7F0B970BAF0BC80BE00BF989
:100300000B120C2B0C440C5E0C770C910CAB0CC636
:100310000CE00CFB0C160D320D4D0D690D850DA179
:100320000DBD0DDA0DF70D140E310E4F0E6D0E8B47
:100330000EAA0EC80EE70E070F260F460F660F8790
:100340000FA70FC90FEA0F0C102D10501072109547
:1003500010B910DC100011241149116E119311B95C
:1003600011DF1106122D1254127C12A412CC12F5B8
:10037000121E13481372139D13C813F3131F144C4A
:10038000147914A614D4140215311561159115C1F0
:1003900015F215241656168916BC16F01624175990
:1003A000178F17C517FC1734186C18A518DF181A03
:1003B0001955199119CD190B1A491A881AC71A0813
:1003C0001B491B8C1BCF1B131C581C9E1CE41C2C94
:1003D0001D751DBF1D091E551EA21EF01E3F1F8F3D
:1003E0001FE11F33208720DC2032218A21E3213DB9
:1003F000229922F6225423B42316247924DD24449E
:1004000025AC2515268126EE265D27CE274128B668
:10041000282D29A629212A9E2A1E2BA02B252CAC6B
:100420002C352DC12D502EE12E762F0D30A73045C5
:1004300031E53189323133DC338A343C35F235AC45
:10044000366B372D38F438BF39903A653B3F3C1E48
:100450003D033EED3EDD3FD440D041D342DD43EE8F
:1004600044074627474F487F49B84AFA4B454D9ABB
:100470004EFA4F6451DA525B54E95584572C59E3D4
:100480005AA95C7F5E65605D6268648666B96802D1
:100490006B626DDB6F6E721D75E977D67AE47D163F
:1004A000817084F287A28B818F9493DF97679C3150
:1004B000A142A6A1AB56B168B7E1BDCBC432CC24F2
:1004C000D4B2DCECE5EAEFC3FAFFFFFFFFFFFFFF6A
:1004D000FFFFFFFFFFFFFFFFFFFFFFFFFFFFFFFF2C
:1004E000FFFFFFFFFFFFFFFFFFFFFFFFFFFFFFFF1C
:1004F000FFFFFFFFFFFFFFFFFFFFFFFFFFFFFFFF0C
:10050000FFFFFFFFFFFFFFFFFFFFFFFFFFFFFFFFFB
:10091000FFFFFFFFFFFFFF00D60E11241FBECFEF2A
:10092000DAE0DEBFCDBF11E0A0E0B1E0E4E1F4E247
:1009300002C005900D92AE32B107D9F722E0AEE2C7
:10094000B1E001C01D92A73AB207E1F714E0CDE88B
:10095000D4E004C02197FE010E940212CC38D107D6
:10096000C9F70E94680F0C9408120C9400008111C2
:1009700007C099B1947081E0911101C080E00895A1
:10098000813019F499B19870F6CF93B1823011F497
:100990009072F1CF9074EFCFCF92DF92EF92FF92EF
:1009A0000F931F93282F237030E0F901E85EFE4F6C
:1009B00000812C5E3E4FF9019081613091F5C02E8F
:1009C000D12CF12CE12C092F10E030E020E082FD49
:1009D00008C0FE2CED2CDC2CCC24322F212F102F24
:1009E0000027E5EBF1E050E0B601602B712B60953C
:1009F00070950095109581919191DF011297541790
:100A0000F8F48C299D29802391238D939C935F5F1B
:100A1000503489F71F910F91FF90EF90DF90CF90A6
:100A20000895623029F4C92ED12CF12CE12CCCCFC1
:100A3000092B10E030E020E0C12CD12C7601C7CF8B
:100A400086239723E2CFCF93880FC1E0C80F62308F
:100A5000A9F06330D1F0613051F040E060E00E94D5
:100A6000CC0440E060E08C2FCF910C94CC0440E4A7
:100A700062E00E94CC0440E461E0F5CF40E461E034
:100A80000E94CC0440E462E0EECF40E462E0F8CFA4
:100A900083FF02C0469A0895469880FF08C0889A4E
:100AA00081FF07C0899A82FF06C05D9A08958898E1
:100AB000F7CF8998F8CF5D9808958091A00190E0D4
:100AC000959587952091B10130E0082E02C03595AB
:100AD00027950A94E2F720FF16C00E94480520914E
:100AE000A001822F90E095958795837023FD0DC01E
:100AF000846480937C0010927B0080917A008064F3
:100B000080937A0008958FEFE8CF806480937C0013
:100B100080E280937B00F1CF90914F01911103C04F
:100B20008FEF9FEF08954FB7F89492E09093E9000C
:100B30009091F200292F30E01216130614F421E0F0
:100B400030E0232B29F084E680934E018091F10060
:100B5000992339F02091F200211103C02BE6209354
:100B6000E8004FBF9923E1F290E008952FB7F89481
:100B700083E08093E9009091E800892F807295FFCF
:100B800004C09091F20080E4891B2FBF08958091EA
:100B9000460181110DC082E08093420184E0809380
:100BA0004301109245011092440181E08093460177
:100BB00082E491E008953FB7F89480913E019091CE
:100BC0003F01A0914001B091410126B5A89B05C00D
:100BD0002F3F19F00196A11DB11D3FBFBA2FA92FBC
:100BE000982F8827BC01CD01620F711D811D911DB9
:100BF00042E0660F771F881F991F4A95D1F7089525
:100C00008F929F92AF92BF92CF92DF92EF92FF921C
:100C10000F931F93CF93C82F80914C020C2F10E09D
:100C200090E00C2E02C0959587950A94E2F780FF1C
:100C30003AC08C2F0E94B7048823A9F180914B02FF
:100C400090E00C2E02C0959587950A94E2F780FDFE
:100C50002AC0F801EE0FFF1FE35BFD4F80819181F9
:100C6000019609F520914C0280E190E00C2E02C023
:100C7000880F991F0A94E2F730E08223932360E003
:100C8000892B09F063E08C2F0E94230520914C02F0
:100C900081E090E00C2E01C0880F0A94EAF780955D
:100CA000822380934C027801EE0CFF1CEE0CFF1C9B
:100CB000C701855C9D4F6C01FC0180819181A281FF
:100CC000B381892B8A2B8B2B09F45CC00E94DB0536
:100CD000F60180809180A280B380681979098A0921
:100CE0009B09693E73408105910508F44BC08C2F28
:100CF0000E94B70490914B02292F30E00C2E02C0C5
:100D0000359527950A94E2F720FF29C081113AC052
:100D100021E030E001C0220FCA95EAF7209529238F
:100D200020934B022091550230E0A801440F551F3B
:100D300002C0359527954A95E2F72370233021F0BC
:100D4000811117C02230B9F4000F111FF801E35BC5
:100D5000FD4F808191810196918380830CC088230F
:100D600089F021E030E001C0220FCA95EAF7292B73
:100D7000D7CF213049F3F701E55CFD4F1082118296
:100D800012821382CF911F910F91FF90EF90DF900D
:100D9000CF90BF90AF909F908F900895CF93C82F22
:100DA0000E9400060E94DB0524E0C29FF00111248E
:100DB000E55CFD4F6083718382839383CF910895B7
:100DC0008F929F92AF92BF92CF92DF92EF92FF925B
:100DD0004B015C010E94DB056B017C010E94DB057D
:100DE0006C197D098E099F09683E73408105910544
:100DF000A8F321E0821A9108A108B10888EEC80E74
:100E000083E0D81EE11CF11C81149104A104B104FB
:100E100029F7FF90EF90DF90CF90BF90AF909F9019
:100E20008F900895409130015091310120912E0111
:100E300030912F0142175307B4F49091E800957058
:100E4000E1F39091E80092FD19C08093F100809148
:100E500030019091310101968F739927892B19F4F4
:100E60008EEF8093E80080913001909131010196DE
:100E7000909331018093300181E0089580E00895DE
:100E8000EF92FF920F931F93CF93DF93F82E192FBA
:100E9000E62E042F81E0860F880F0E94120783E060
:100EA0000E941207CF2DD12FEC0EFD2EF11CCE1576
:100EB000DF05B9F007FF13C0FE0184910E941207FD
:100EC000182F80E00E941207812321968111EFCF15
:100ED000DF91CF911F910F91FF90EF90089588813E
:100EE000EDCF81E0F5CFDF92EF92FF920F931F934A
:100EF000CF93DF93D82E8A01EB017B01E40EF51E20
:100F0000CE15DF0559F0D7FE12C0FE0184910E9474
:100F1000120721968111F4CF0FEF1FEFC801DF9167
:100F2000CF911F910F91FF90EF90DF9008958881EE
:100F3000EECF0F931F93CF93DF931F92CDB7DEB702
:100F400082E0898342E450E06CEA70E080E80E942D
:100F500073070E94C705DC0112960D911C910115C3
:100F6000110589F0D801ED91FC910280F381E02D0B
:100F7000BE016F5F7F4FC801099597FD04C0F8015E
:100F800000851185ECCF89810F90DF91CF911F9162
:100F90000F9108958F929F92AF92BF92CF92DF925E
:100FA000EF92FF920F931F93CF93DF936C017B011E
:100FB0008A0180910C01882309F45BC080914F0164
:100FC000882309F456C08091340180FF05C08091C8
:100FD000E00082608093E000E801B12C8AEFA82E47
:100FE00093E0892E2AE3922E209711F4BB20D9F1A9
:100FF0000E94B60581110AC0AA94AA20D1F161E02D
:1010000070E080E090E00E94E006EECF8C171D06B5
:1010100011F00CF08C2F9FB7F8948092E90020918A
:10102000E80025FD02C09FBFDFCF282F30E0C21BA4
:10103000D30BF701815020F041914093F100FACF9A
:10104000E20EF31EBB2021F09092E800B12CEBCF12
:101050008091E80085FDE7CF9092E800BB24B3942F
:10106000209709F3F3CF84E680933301101611061D
:101070003CF081E090E0F6019383828310E000E091
:10108000C801DF91CF911F910F91FF90EF90DF90FA
:10109000CF90BF90AF909F908F900895CF93DF93A4
:1010A0001F92CDB7DEB76983DC01ED91FC91028020
:1010B000F381E02D41E050E0BE016F5F7F4F099565
:1010C0000F90DF91CF91089583E08093E9008091A4
:1010D000F200882319F08AE38093E80008950E94C3
:1010E000B60590E00895FC018485958597FD05C0BF
:1010F0002FEF3FEF3587248708950C948C05CF930D
:10110000DF93EC018C859D8597FF04C00E948C05C0
:101110009D878C878C859D85DF91CF910895FC01FB
:101120008485958597FD0BC09FB7F89482E08093E6
:10113000E9008091F2009FBF90E0019608959FB76B
:10114000F89482E08093E9008091F2009FBF90E0E4
:101150000895FC01118E60E085890C942305FC0143
:1011600081E0818F60816F5F85890C94230521E088
:10117000DC0159962C93599750962C9350972C93A9
:101180005796ED91FC91FF27EE0FFF1FE35BFD4F9C
:10119000118210820C94AF08F0E0E0E08830F0F4A7
:1011A000E82FF0E021E030E002C0220F331F8A95E3
:1011B000E2F78091B30190E082239323892B39F4E5
:1011C0008FE891E00197F1F700C00000F2CFEE0F39
:1011D000FF1FE056FE4F0180F281E02DEE0FFF1F52
:1011E000E75EFE4F859194910895E82FF0E02091FD
:1011F000B10130E0082E02C0359527950A94E2F738
:1012000020FF17C02091B20130E0082E02C03595B2
:1012100027950A94E2F720FD0C94CC080E94CC0894
:1012200031E020E0843F914008F030E0832F922F9E
:10123000089530E020E08830D8F421E030E002C0AA
:10124000220F331F8A95E2F78091B30190E0822349
:101250009323892B39F48FE891E00197F1F700C0CF
:101260000000F2CFEE0FFF1FE056FE4F21813281CA
:10127000A0E1B7E20E94D1112FEF33E040E050E04F
:101280000E94B211C90108950F931F93CF93DF936A
:101290008C01FC0187819085029739F0F8018781E4
:1012A00090850197D1F020E022C0C185D28590E0E1
:1012B00080E0C43050F48C2F0E940006DD27CC0F54
:1012C000DD1FC35BDD4F88819981F801238534855B
:1012D0008217930718F321E00AC081850E94F50860
:1012E00021E0F8014385548548175907E1F6822F1C
:1012F000DF91CF911F910F9108950F931F93CF937B
:10130000DF93EC0189819A81892B91F089819A81FF
:10131000019741F48B810E94F5082D813E8182174F
:10132000930771F089819A81029781F080E009C06A
:101330008B810E94F5082D813E818217930730F33F
:1013400081E0DF91CF911F910F9108950B811C8156
:1013500030E020E0043058F4802F0E940006F801AD
:10136000FF27EE0FFF1FE35BFD4F2081318181E0FE
:101370004D815E812417350720F7D8CF0F931F9337
:10138000CF938C01FC01818D811109C0F801C28DC0
:10139000C1110EC08C2FCF911F910F910895C0895C
:1013A000CC23A1F385850E94F508892B79F7F2CF2C
:1013B000C18DCC2379F385850E94F508C1E0892B86
:1013C00049F3C0E0E7CFCF93DF93EC01898D811122
:1013D0001FC0888981111CC0CE010E947D0988230D
:1013E000B9F08A8D811114C08F85811111C0EF89E8
:1013F000F88DFF27EE0FFF1FE35BFD4F1182108278
:10140000CE010E94AF0881E0898FDF91CF910895CE
:10141000898D882309F1898D81112AC0CE010E940E
:10142000BE098823A9F11882198E188ACE010E945C
:10143000A908EF89F88DFF27EE0FFF1FE35BFD4F33
:10144000118210828A8D882301F381E0898FCE0179
:10145000DF91CF910C94AF0888898111DCCFCE0148
:101460000E947D098823B9F28F858111D4CFBFCF27
:1014700088898111D3CFCE010E944409882371F25B
:101480008A8D8111CBCFCE01DF91CF910C94B7081B
:10149000898D882309F4B9CF8A8D882309F4B5CFC3
:1014A00088898111B2CFCE010E944409882309F4B2
:1014B000ACCFCE010E94A908EF89F88DFF27EE0F6F
:1014C000FF1FE35BFD4F11821082198E188A81E0A5
:1014D00088839BCF1F920F920FB60F9211242F93E8
:1014E0003F938F939F93AF93BF9380913A019091D5
:1014F0003B01A0913C01B0913D013091390123E0C5
:10150000230F2D3758F50196A11DB11D20933901E8
:1015100080933A0190933B01A0933C01B0933D012D
:1015200080913E0190913F01A0914001B091410115
:101530000196A11DB11D80933E0190933F01A093A0
:101540004001B0934101BF91AF919F918F913F9125
:101550002F910F900FBE0F901F90189526E8230F24
:101560000296A11DB11DD2CF1F920F920FB60F92FE
:1015700011248F939F938091E1009091E100937FDC
:101580009093E10083FF0FC01092E90091E09093E7
:10159000EB001092EC0092E39093ED0010924F015B
:1015A00098E09093F00082FF1CC093E09093E900D4
:1015B0009091F200992319F09AE39093E8009091AA
:1015C0003301992329F09091330191509093330185
:1015D00090914E01992329F090914E019150909352
:1015E0004E0184FF18C08091E2008E7E816080935E
:1015F000E2008091E1008F7E8093E10080913401D0
:101600008E7E8061809334019F918F910F900FBEE9
:101610000F901F90189580FFF7CF8091E2008E7E8B
:1016200080618093E2008091E1008E7E8093E100F2
:10163000809134018E7E8160E5CF1F920F920FB6AC
:101640000F921124CF92DF92EF92FF920F931F938C
:101650002F933F934F935F936F937F938F939F93BA
:10166000AF93BF93EF93FF93CF93DF93CDB7DEB7E5
:101670006C97DEBFCDBF1092E9008091E80083FF38
:101680002FC089E0FE017596EE2EDF2E815029F0E5
:101690009091F10090833196F9CF84E680934E01CA
:1016A00082EF8093E8008D8987FF39C09091E80030
:1016B00090FFFCCF982F907609F033C19E894F8917
:1016C000588D2F89F88C911131C0803861F5809147
:1016D00035018093F1001092F1008EEF8093E800C5
:1016E0006C960FB6F894DEBF0FBECDBFDF91CF91E1
:1016F000FF91EF91BF91AF919F918F917F916F91EA
:101700005F914F913F912F911F910F91FF90EF901B
:10171000DF90CF900F900FBE0F901F9018959EEF07
:101720009093E800C7CF1092F100D5CF913059F4D3
:101730008111D3CF4130510581F6809135018D7FE4
:1017400080933501CACF933049F48111C6CF41301F
:10175000510519F6809135018260F2CF953041F440
:101760008091E80080FFFCCF20682093E300B5CF94
:10177000963009F0A8C00B8D1C8D22E01092E90074
:101780001092310110923001F2122EC010922F01EE
:1017900010922E010E9499071F8299E09983FA8284
:1017A00091E09E8390EA98879AEF99872091300183
:1017B00030913101275F3F4F3C832B838D83109203
:1017C000E900109231011092300110932F01009323
:1017D0002E0149E050E0BE016F5F7F4F80E00E9424
:1017E00073070E94990779CF10932F0100932E0160
:1017F0000E94C705DC0112960D911C91011511057F
:1018000009F457C1D801ED91FC910480F581E02DD8
:101810006E2D7D2DC8010995009709F045C1F8018D
:1018200000851185EBCFF3E0FF120EC08F8988236E
:1018300009F440C0823061F440E867E081E191E062
:101840000E944007811149CF81E28093EB0048CF8D
:10185000813029F440E86CE084E091E0F1CF8330FE
:1018600099F70E94C705DC011296ED90FC908E015D
:101870000F5F1F4F6801E114F10479F0D701ED917A
:10188000FC910680F781E02DB801C7010995080F8A
:10189000111DF701E084F184EECFD8011C92F6010E
:1018A00001900020E9F73197BF016C197D0940E0F4
:1018B000C601C6CF6EEE70E0FB01449150E080E8B7
:1018C0000E9473070ACF973009F4BECF983021F4F5
:1018D00081E08093F10001CF993009F0FECE837052
:1018E00009F0B2CFEEE0F1E081E031E096E3219142
:1018F000222371F08093E9003093EB00DF01119710
:101900002C912093EC009093ED008F5F873079F756
:101910008EE78093EA001092EA008F8980934F014E
:10192000DCCE8B8D9C8D1092E900109231011092CB
:10193000300190932F0180932E01898D81119AC0DF
:101940008E899D89913A49F4813209F07DCF47E033
:1019500050E065E071E080E0B3CF913209F074CFE0
:10196000833269F48F89988DB0E0A0E08093010103
:1019700090930201A0930301B0930401AECE803294
:10198000A9F48091E80082FFFCCF88E0E5E0F1E077
:10199000815029F09091F10090833196F9CF84E63F
:1019A00080934E018BEF8093E80097CE823209F04E
:1019B00094CE8F8980930C01EEEFFFE7859194918F
:1019C0008B3F9C4D51F1E0E0F8E080910501909152
:1019D0000601A0910701B0910801803B9440A10548
:1019E000B105F1F480910C0180FD1AC0EE3F8AE050
:1019F000F80789F587E797E79183808380916000F6
:101A00008093320188E19BE00FB6F894A89580930B
:101A100060000FBE9093600060CEEEEFFAE0D5CF8D
:101A2000808191818737974709F057CEA89580919B
:101A30006000886180936000809132018093600033
:101A4000EE3F2AE0F20789F08091FE0A9091FF0AAA
:101A50009183808342CE808191818737980751F2AC
:101A60009093FF0A8093FE0AC5CF1092FF0A10924E
:101A7000FE0A33CE0E94C705DC0112960D911C911F
:101A80000115110509F4E0CED801ED91FC9101900A
:101A9000F081E02D6E2D7D2DC801099581111DCE9F
:101AA000F80100851185ECCF181619060CF415CE37
:101AB000CBCEF1E0FF12B7CE62EF70E0FDCE1F9209
:101AC0000F920FB60F9211242F933F934F935F9372
:101AD0006F937F938F939F93AF93BF93CF93DF9336
:101AE000EF93FF93D3B1C0910001CD27C5FF03C091
:101AF00082E00E94CE06C6FF03C083E00E94CE06AD
:101B0000D0930001FF91EF91DF91CF91BF91AF9101
:101B10009F918F917F916F915F914F913F912F9105
:101B20000F900FBE0F901F9018951F920F920FB637
:101B30000F9211242F933F934F935F936F937F9353
:101B40008F939F93AF93BF93EF93FF9381E00E9496
:101B5000CE06FF91EF91BF91AF919F918F917F91B1
:101B60006F915F914F913F912F910F900FBE0F900A
:101B70001F9018951F920F920FB60F9211242F935A
:101B80003F934F935F936F937F938F939F93AF9305
:101B9000BF93EF93FF9380E00E94CE06FF91EF91F9
:101BA000BF91AF919F918F917F916F915F914F9175
:101BB0003F912F910F900FBE0F901F9018951F927D
:101BC0000F920FB60F9211248F939F93809138023A
:101BD000882311F18091370291E0980F909337029A
:101BE000843029F48FEF80933A0280933902109267
:101BF00038028091C9008F7E8093C900729A8FE06D
:101C000094EF90939500809394009F918F910F9003
:101C10000FBE0F901F90189581E080933802729844
:101C20008091C90080618093C900EFCF1F920F920D
:101C30000FB60F9211248F939F938091CE009091B5
:101C40003802913089F4982F987F903819F4877072
:101C50008093390282E0809338029F918F910F9098
:101C60000FBE0F901F9018959230B9F787FF8093A1
:101C70003A0283E08093380210923702EECF1F922F
:101C80000F920FB60F9211242F933F934F935F93B0
:101C90008F939F93EF93FF938091B401982F93704C
:101CA00081F4289A2898E82FE695E695F0E0EE0F63
:101CB000FF1FE056FE4F45895689509336024093E8
:101CC000350280FF19C081FB222720F930E02B5C10
:101CD0003D4FF90190819EBD8F5F8093B401FF91CC
:101CE000EF919F918F915F914F913F912F910F9025
:101CF0000FBE0F901F9018951EBCEECF1F920F9233
:101D00000FB60F9211242F933F934F935F936F93CE
:101D10007F938F939F93AF93BF93EF93FF938091A4
:101D2000A00180FF1AC0282F30E0359527954091FB
:101D3000780050917900F901EE0FFF1FE056FE4F39
:101D40005283418341E050E001C0440F2A95EAF7F5
:101D50009091B301942B9093B3018F5F982F9F7054
:101D60009093A001837029F4892F869586950E940F
:101D700000068091A00180FD13C00E945D05FF91C7
:101D8000EF91BF91AF919F918F917F916F915F91F3
:101D90004F913F912F910F900FBE0F901F9018956C
:101DA00080917A00806480937A00E9CFE0E5F1E0E9
:101DB0001382128288EE93E0A0E0B0E084839583E2
:101DC000A683B78380E291E0918380838FEF9FEFBA
:101DD00095878487E0EAF1E0818B128A138A148A5E
:101DE0008093390280933A02EBE3F2E080E1DF0175
:101DF0001D928A95E9F7ECE8F2E0108212821182D6
:101E00001482138280E197E29683858382E090E0DA
:101E1000908787831286118628E735E034872387E9
:101E200023E030E036872587108A168A158A108EBF
:101E3000178A118E128E1786128A118A148A138AB3
:101E4000E1E7F2E01082928381831482138226E418
:101E500035E0368325839087878321E030E0328721
:101E600021874AE852E05487438744E050E0568790
:101E70004587108A368B258B308F278B118E61E03A
:101E8000628F1786128A118A148A138AE6E5F2E0B5
:101E900010823283218354834383168215823087D4
:101EA000278325E030E0328721871486138626E0D9
:101EB00030E036872587108A968B858B908F878BAD
:101EC000118E128E1786128A118A148A138A089527
:101ED000789484B5826084BD84B5816084BD85B505
:101EE000826085BD85B5816085BD80916E00816011
:101EF00080936E00109281008091810082608093B7
:101F000081008091810081608093810080918000B8
:101F10008160809380008091910082608093910025
:101F20008091910081608093910080919000816008
:101F3000809390008091C10084608093C100809163
:101F4000C10082608093C1008091C1008160809354
:101F5000C1008091C30081608093C3008091C00064
:101F600082608093C0008091C20081608093C20033
:101F700080917A00846080937A0080917A008260F8
:101F800080937A0080917A00816080937A008091BA
:101F90007A00806880937A0010924F011092350188
:101FA000109234018091D70081608093D70080EA3D
:101FB0008093D80089B5806189BD89B5826089BD6B
:101FC00009B400FEFDCF61E070E080E090E00E9487
:101FD000E0068091D8008F7C80618093D80080914A
:101FE000E000807F8093E0008091E1008E7E80930E
:101FF000E1008DE08093E2003E9A469A809A8898AC
:10200000819A8998559A5D9880EF80937E008FE041
:1020100080937D0084E480937C008FE880937A0035
:1020200010927B001092A0011092B3010E945D05F6
:102030006A9A729880E190E09093CD008093CC00F2
:1020400082E08093C80080E88093C90086E0809396
:10205000CA0084B1876084B9289A86ED8CBD8DB59D
:102060008E7F8DBD6E9A769A279A2F98E5EBF1E0D8
:1020700085E392E0119211928E179F07D9F7109283
:10208000B4011EBC8AB1837F8AB98BB1837F8BB9BF
:1020900084B18F7984B985B18F7985B980EF8093C8
:1020A0004C021092550280E5809369008CE08DBB54
:1020B00081E08093680080E680936B0088E18093E4
:1020C000810083E08093800010928500109284004C
:1020D00085E09FEF90938900809388002FEF3FEF7A
:1020E00030938B0020938A0084E086BB80936F003E
:1020F000809181008360809381008FEF80934B02F9
:1021000010924E0210924D021092500210924F0205
:1021100010925202109251021092540210925302E5
:1021200030935D0120935C018091B2019091B101E7
:1021300080FF02C090FD0BC091609093B10181605F
:102140008093B2018091B3018E7F8093B30180911F
:10215000B2019091B10183FD02C093FD0BC0986064
:102160009093B101877F8093B2018091B301877F03
:102170008093B3018091B2019091B10184FD02C0BE
:1021800094FD0BC090619093B1018F7E8093B2015A
:102190008091B3018F7E8093B3018091B2019091C1
:1021A000B10186FD02C096FD0BC090649093B10111
:1021B0008F7B8093B2018091B3018F7B8093B301B9
:1021C0008091B2019091B10187FD02C097FD0BC0D3
:1021D00090689093B1018F778093B2018091B301A1
:1021E0008F778093B301809155028F608093550261
:1021F0008CE892E00E94B70881E792E00E94B7085D
:102200001092810286E592E00E94B70881E08093F7
:102210006502C0E0D0E011E081E792E00E94BE09D3
:10222000882309F44EC08091810281114AC02FB7E2
:10223000F89480913A0190913B01A0913C01B091BA
:102240003D012FBF89389341A105B105D0F180919F
:102250003801811136C01092650286E592E00E9435
:10226000AF0881E792E00E94A9088CE892E00E9402
:10227000A9086CE775E180E090E00E94E006E0913B
:10228000A302F091A402FF27EE0FFF1FE35BFD4FB7
:1022900011821082E0918802F0918902FF27EE0FEF
:1022A000FF1FE35BFD4F118210821092710281E7E4
:1022B00092E00E94AF0864EF71E080E090E00E943D
:1022C000E0068CE892E00E94E30981E792E00E9438
:1022D000E30986E592E00E94E30987E00E94F508A1
:1022E000892B29F58CE892E00E94B70881E792E0FB
:1022F0000E94B70886E592E00E94B7081093650235
:10230000109338012FB7F89480913A0190913B01D6
:10231000A0913C01B0913D012FBF90933701809374
:102320003601209709F478CF0E94000075CF2FB7AF
:10233000F89480913A0190913B01A0913C01B091B9
:102340003D012FBF2091360130913701821B930B45
:10235000A109B10989389341A105B10510F3109283
:102360003801DFCF052E97FB1EF400940E94C9119F
:1023700057FD07D00E94E01107FC03D04EF40C94E7
:10238000C91150954095309521953F4F4F4F5F4F64
:10239000089590958095709561957F4F8F4F9F4FD1
:1023A0000895A29FB001B39FC001A39F700D811D2E
:1023B0001124911DB29F700D811D1124911D08954E
:1023C000A1E21A2EAA1BBB1BFD010DC0AA1FBB1F39
:1023D000EE1FFF1FA217B307E407F50720F0A21BAB
:1023E000B30BE40BF50B661F771F881F991F1A9418
:1023F00069F760957095809590959B01AC01BD0142
:10240000CF010895EE0FFF1F0590F491E02D099480
:04241000F894FFCF6E
:10241400FFFFFFFFFF00E100000000000000C1809B
:102424008100000080014004022008100000000028
:0E2434004E08CA076F0864088F0873087F08F7
:00000001FF
